:020000040800F2
:10000000005000203501000879010008790100083E
:10001000790100087901000879010008000000005A
:10002000000000000000000000000000790100084E
:10003000790100080000000079010008790100083A
:1000400079010008790100087901000879010008A8
:100050007901000879010008790100087901000898
:100060007901000879010008790100087901000888
:100070007901000879010008790100087901000878
:100080007901000879010008790100087901000868
:100090007901000879010008790100087901000858
:1000A0007901000879010008790100087901000848
:1000B0007901000879010008790100087901000838
:1000C0007901000879010008790100087901000828
:1000D0007901000879010008790100087901000818
:1000E000790100087901000879010008000000008A
:1000F0000000000000000000000000000000000000
:0C01000000000000000000005FF808F1A3
:10010C00B8010008000000200000002000000020C2
:10011C0000000020704782B00190019B5A1E019292
:10012C00002BFAD102B07047002103E00A4B5B5858
:10013C004350043109480A4B42189A42F6D3094AF3
:10014C0002E0002342F8043B074B9A42F9D3FFF735
:10015C00E1FF00F00DF87047B80100080000002026
:10016C00000000200000002000000020FEE700003E
:10017C000B4A08B593690B4943F01C0393614B6818
:10018C00094823F470034B604B6843F480134B60B5
:10019C00CB6883F40053CB60FFF7BDFFF8E700BFDB
:0C01AC0000100240001001402BCE0800A3
:040000050800010CE2
:00000001FF
